{
  "address": "0x7D1d608630F311ebBa6bb56AA3Ac4ef8e0F52dD8",
  "abi": [
    {
      "inputs": [],
      "stateMutability": "nonpayable",
      "type": "constructor"
    },
    {
      "anonymous": false,
      "inputs": [
        {
          "indexed": true,
          "internalType": "address",
          "name": "account",
          "type": "address"
        },
        {
          "indexed": true,
          "internalType": "address",
          "name": "token",
          "type": "address"
        },
        {
          "indexed": false,
          "internalType": "uint256",
          "name": "amount",
          "type": "uint256"
        }
      ],
      "name": "ClaimReserve",
      "type": "event"
    },
    {
      "anonymous": false,
      "inputs": [
        {
          "indexed": true,
          "internalType": "uint256",
          "name": "handler",
          "type": "uint256"
        },
        {
          "indexed": true,
          "internalType": "address",
          "name": "creator",
          "type": "address"
        },
        {
          "indexed": true,
          "internalType": "address",
          "name": "daoAddress",
          "type": "address"
        },
        {
          "indexed": false,
          "internalType": "uint256",
          "name": "chainId",
          "type": "uint256"
        },
        {
          "indexed": false,
          "internalType": "address",
          "name": "tokenAddress",
          "type": "address"
        }
      ],
      "name": "CreateDAO",
      "type": "event"
    },
    {
      "anonymous": false,
      "inputs": [
        {
          "indexed": true,
          "internalType": "address",
          "name": "creator",
          "type": "address"
        },
        {
          "indexed": false,
          "internalType": "address",
          "name": "token",
          "type": "address"
        }
      ],
      "name": "CreateERC20",
      "type": "event"
    },
    {
      "anonymous": false,
      "inputs": [
        {
          "indexed": false,
          "internalType": "uint8",
          "name": "version",
          "type": "uint8"
        }
      ],
      "name": "Initialized",
      "type": "event"
    },
    {
      "anonymous": false,
      "inputs": [
        {
          "indexed": true,
          "internalType": "address",
          "name": "previousOwner",
          "type": "address"
        },
        {
          "indexed": true,
          "internalType": "address",
          "name": "newOwner",
          "type": "address"
        }
      ],
      "name": "OwnershipTransferred",
      "type": "event"
    },
    {
      "anonymous": false,
      "inputs": [
        {
          "indexed": true,
          "internalType": "address",
          "name": "account",
          "type": "address"
        },
        {
          "indexed": false,
          "internalType": "bool",
          "name": "enable",
          "type": "bool"
        }
      ],
      "name": "SignerSet",
      "type": "event"
    },
    {
      "inputs": [
        {
          "internalType": "uint256",
          "name": "index_",
          "type": "uint256"
        }
      ],
      "name": "claimReserve",
      "outputs": [],
      "stateMutability": "nonpayable",
      "type": "function"
    },
    {
      "inputs": [
        {
          "components": [
            {
              "internalType": "string",
              "name": "name",
              "type": "string"
            },
            {
              "internalType": "string",
              "name": "handle",
              "type": "string"
            },
            {
              "internalType": "string",
              "name": "category",
              "type": "string"
            },
            {
              "internalType": "string",
              "name": "description",
              "type": "string"
            },
            {
              "internalType": "string",
              "name": "twitter",
              "type": "string"
            },
            {
              "internalType": "string",
              "name": "github",
              "type": "string"
            },
            {
              "internalType": "string",
              "name": "discord",
              "type": "string"
            },
            {
              "internalType": "string",
              "name": "daoLogo",
              "type": "string"
            },
            {
              "internalType": "string",
              "name": "website",
              "type": "string"
            }
          ],
          "internalType": "struct IDAOBase.General",
          "name": "general_",
          "type": "tuple"
        },
        {
          "components": [
            {
              "internalType": "uint256",
              "name": "chainId",
              "type": "uint256"
            },
            {
              "internalType": "address",
              "name": "tokenAddress",
              "type": "address"
            }
          ],
          "internalType": "struct IDAOBase.Token",
          "name": "token_",
          "type": "tuple"
        },
        {
          "components": [
            {
              "internalType": "uint256",
              "name": "proposalThreshold",
              "type": "uint256"
            },
            {
              "internalType": "uint256",
              "name": "votingThreshold",
              "type": "uint256"
            },
            {
              "internalType": "uint256",
              "name": "votingPeriod",
              "type": "uint256"
            },
            {
              "internalType": "enum IDAOBase.VotingType",
              "name": "votingType",
              "type": "uint8"
            }
          ],
          "internalType": "struct IDAOBase.Governance",
          "name": "governance_",
          "type": "tuple"
        },
        {
          "internalType": "uint256",
          "name": "deadline_",
          "type": "uint256"
        },
        {
          "internalType": "bytes",
          "name": "signature_",
          "type": "bytes"
        }
      ],
      "name": "createDAO",
      "outputs": [],
      "stateMutability": "nonpayable",
      "type": "function"
    },
    {
      "inputs": [
        {
          "internalType": "string",
          "name": "name_",
          "type": "string"
        },
        {
          "internalType": "string",
          "name": "symbol_",
          "type": "string"
        },
        {
          "internalType": "string",
          "name": "logoUrl_",
          "type": "string"
        },
        {
          "internalType": "uint8",
          "name": "decimal_",
          "type": "uint8"
        },
        {
          "internalType": "uint256",
          "name": "totalSupply_",
          "type": "uint256"
        },
        {
          "components": [
            {
              "internalType": "address",
              "name": "recipient",
              "type": "address"
            },
            {
              "internalType": "uint256",
              "name": "amount",
              "type": "uint256"
            },
            {
              "internalType": "uint256",
              "name": "lockDate",
              "type": "uint256"
            }
          ],
          "internalType": "struct IDAOFactory.DistributionParam[]",
          "name": "distributions_",
          "type": "tuple[]"
        }
      ],
      "name": "createERC20",
      "outputs": [],
      "stateMutability": "nonpayable",
      "type": "function"
    },
    {
      "inputs": [],
      "name": "daoImpl",
      "outputs": [
        {
          "internalType": "address",
          "name": "",
          "type": "address"
        }
      ],
      "stateMutability": "view",
      "type": "function"
    },
    {
      "inputs": [
        {
          "internalType": "address",
          "name": "account_",
          "type": "address"
        }
      ],
      "name": "getReserved",
      "outputs": [
        {
          "components": [
            {
              "internalType": "address",
              "name": "token",
              "type": "address"
            },
            {
              "internalType": "uint256",
              "name": "amount",
              "type": "uint256"
            },
            {
              "internalType": "uint256",
              "name": "lockDate",
              "type": "uint256"
            }
          ],
          "internalType": "struct IDAOFactory.Reserve[]",
          "name": "",
          "type": "tuple[]"
        }
      ],
      "stateMutability": "view",
      "type": "function"
    },
    {
      "inputs": [
        {
          "internalType": "string",
          "name": "",
          "type": "string"
        }
      ],
      "name": "handles",
      "outputs": [
        {
          "internalType": "bool",
          "name": "",
          "type": "bool"
        }
      ],
      "stateMutability": "view",
      "type": "function"
    },
    {
      "inputs": [
        {
          "internalType": "address",
          "name": "account_",
          "type": "address"
        }
      ],
      "name": "increaseNonce",
      "outputs": [
        {
          "internalType": "uint256",
          "name": "_nonce",
          "type": "uint256"
        }
      ],
      "stateMutability": "nonpayable",
      "type": "function"
    },
    {
      "inputs": [
        {
          "internalType": "address",
          "name": "daoImpl_",
          "type": "address"
        },
        {
          "internalType": "address",
          "name": "tokenImpl_",
          "type": "address"
        }
      ],
      "name": "initialize",
      "outputs": [],
      "stateMutability": "nonpayable",
      "type": "function"
    },
    {
      "inputs": [
        {
          "internalType": "address",
          "name": "signer_",
          "type": "address"
        }
      ],
      "name": "isSigner",
      "outputs": [
        {
          "internalType": "bool",
          "name": "",
          "type": "bool"
        }
      ],
      "stateMutability": "view",
      "type": "function"
    },
    {
      "inputs": [
        {
          "internalType": "address",
          "name": "",
          "type": "address"
        }
      ],
      "name": "logoURLs",
      "outputs": [
        {
          "internalType": "string",
          "name": "",
          "type": "string"
        }
      ],
      "stateMutability": "view",
      "type": "function"
    },
    {
      "inputs": [
        {
          "internalType": "address",
          "name": "",
          "type": "address"
        }
      ],
      "name": "nonces",
      "outputs": [
        {
          "internalType": "uint256",
          "name": "",
          "type": "uint256"
        }
      ],
      "stateMutability": "view",
      "type": "function"
    },
    {
      "inputs": [],
      "name": "owner",
      "outputs": [
        {
          "internalType": "address",
          "name": "",
          "type": "address"
        }
      ],
      "stateMutability": "view",
      "type": "function"
    },
    {
      "inputs": [],
      "name": "proxyAdminAddress",
      "outputs": [
        {
          "internalType": "address",
          "name": "",
          "type": "address"
        }
      ],
      "stateMutability": "view",
      "type": "function"
    },
    {
      "inputs": [],
      "name": "renounceOwnership",
      "outputs": [],
      "stateMutability": "nonpayable",
      "type": "function"
    },
    {
      "inputs": [
        {
          "internalType": "address",
          "name": "",
          "type": "address"
        },
        {
          "internalType": "uint256",
          "name": "",
          "type": "uint256"
        }
      ],
      "name": "reserves",
      "outputs": [
        {
          "internalType": "address",
          "name": "token",
          "type": "address"
        },
        {
          "internalType": "uint256",
          "name": "amount",
          "type": "uint256"
        },
        {
          "internalType": "uint256",
          "name": "lockDate",
          "type": "uint256"
        }
      ],
      "stateMutability": "view",
      "type": "function"
    },
    {
      "inputs": [
        {
          "internalType": "address",
          "name": "daoImpl_",
          "type": "address"
        }
      ],
      "name": "setDaoImpl",
      "outputs": [],
      "stateMutability": "nonpayable",
      "type": "function"
    },
    {
      "inputs": [
        {
          "internalType": "address",
          "name": "signer_",
          "type": "address"
        },
        {
          "internalType": "bool",
          "name": "enable_",
          "type": "bool"
        }
      ],
      "name": "setSigner",
      "outputs": [],
      "stateMutability": "nonpayable",
      "type": "function"
    },
    {
      "inputs": [
        {
          "internalType": "address",
          "name": "tokenImpl_",
          "type": "address"
        }
      ],
      "name": "setTokenImpl",
      "outputs": [],
      "stateMutability": "nonpayable",
      "type": "function"
    },
    {
      "inputs": [],
      "name": "tokenImpl",
      "outputs": [
        {
          "internalType": "address",
          "name": "",
          "type": "address"
        }
      ],
      "stateMutability": "view",
      "type": "function"
    },
    {
      "inputs": [
        {
          "internalType": "address",
          "name": "",
          "type": "address"
        },
        {
          "internalType": "uint256",
          "name": "",
          "type": "uint256"
        }
      ],
      "name": "tokensByAccount",
      "outputs": [
        {
          "internalType": "address",
          "name": "",
          "type": "address"
        }
      ],
      "stateMutability": "view",
      "type": "function"
    },
    {
      "inputs": [
        {
          "internalType": "address",
          "name": "newOwner",
          "type": "address"
        }
      ],
      "name": "transferOwnership",
      "outputs": [],
      "stateMutability": "nonpayable",
      "type": "function"
    }
  ],
  "transactionHash": "0xf976335032fe17550e64335015025d62e2ba19a535b4c118e6844b74471728cf",
  "args": [],
  "solcInputHash": "8d3229e8d10c438c63aead2f56b1c616",
  "bytecode": "0x608060405234801561001057600080fd5b50615eb0806100206000396000f3fe608060405234801561001057600080fd5b50600436106101775760003560e01c80638da5cb5b116100d8578063c2a284231161008c578063f2fde38b11610066578063f2fde38b14610367578063f4347dd91461037a578063ffc4992f146103a857600080fd5b8063c2a2842314610309578063de25de501461031c578063e48070b31461035457600080fd5b80639a39728f116100bd5780639a39728f146102c3578063acdd39b6146102e3578063c22726d8146102f657600080fd5b80638da5cb5b1461029f57806393222aed146102b057600080fd5b80636c6589af1161012f5780637df73e27116101145780637df73e27146102225780637ecebe001461025e5780638247a97c1461028c57600080fd5b80636c6589af14610207578063715018a61461021a57600080fd5b8063485cc95511610160578063485cc955146101c15780635979e755146101d45780636b672613146101e757600080fd5b806314530eb71461017c57806331cb6105146101ac575b600080fd5b60665461018f906001600160a01b031681565b6040516001600160a01b0390911681526020015b60405180910390f35b6101bf6101ba366004611ab3565b6103bb565b005b6101bf6101cf366004611aea565b610422565b60655461018f906001600160a01b031681565b6101fa6101f5366004611b1d565b610579565b6040516101a39190611b3f565b6101bf610215366004611ba1565b610611565b6101bf6108b0565b61024e610230366004611b1d565b6001600160a01b031660009081526068602052604090205460ff1690565b60405190151581526020016101a3565b61027e61026c366004611b1d565b606a6020526000908152604090205481565b6040519081526020016101a3565b61027e61029a366004611b1d565b6108c4565b6033546001600160a01b031661018f565b6101bf6102be366004611b1d565b61097b565b6102d66102d1366004611b1d565b6109a5565b6040516101a39190611c16565b6101bf6102f1366004611d22565b610a3f565b61018f610304366004611df0565b610ce4565b6101bf610317366004611e5c565b610d1c565b61032f61032a366004611df0565b611142565b604080516001600160a01b0390941684526020840192909252908201526060016101a3565b6101bf610362366004611b1d565b61118e565b6101bf610375366004611b1d565b6111b8565b61024e610388366004611f14565b805160208183018101805160678252928201919093012091525460ff1681565b606b5461018f906001600160a01b031681565b6103c3611248565b6001600160a01b038216600081815260686020908152604091829020805460ff191685151590811790915591519182527ffc4acb499491cd850a8a21ab98c7f128850c0f0e5f1a875a62b7fa055c2ecf19910160405180910390a25050565b600054610100900460ff16158080156104425750600054600160ff909116105b8061045c5750303b15801561045c575060005460ff166001145b6104d35760405162461bcd60e51b815260206004820152602e60248201527f496e697469616c697a61626c653a20636f6e747261637420697320616c72656160448201527f647920696e697469616c697a656400000000000000000000000000000000000060648201526084015b60405180910390fd5b6000805460ff1916600117905580156104f6576000805461ff0019166101001790555b606680546001600160a01b038086166001600160a01b031992831617909255606b80549285169290911691909117905561052e6112a2565b8015610574576000805461ff0019169055604051600181527f7f26b83ff96e1f2b6a682f133852f6798a09c465da95921460cefb38474024989060200160405180910390a15b505050565b6001600160a01b0381166000908152606d60209081526040808320805482518185028101850190935280835260609492939192909184015b82821015610606576000848152602090819020604080516060810182526003860290920180546001600160a01b03168352600180820154848601526002909101549183019190915290835290920191016105b1565b505050509050919050565b336000908152606d60205260409020548082106106705760405162461bcd60e51b815260206004820152601a60248201527f44414f466163746f72793a20696e76616c696420696e6465782e00000000000060448201526064016104ca565b336000908152606d6020526040812080548490811061069157610691611f49565b600091825260209182902060408051606081018252600390930290910180546001600160a01b0316835260018101549383019390935260029092015491810182905291504210156107245760405162461bcd60e51b815260206004820152601360248201527f44414f466163746f72793a206c6f636b65642e0000000000000000000000000060448201526064016104ca565b61072f600183611f75565b8310156107e757336000908152606d60205260409020610750600184611f75565b8154811061076057610760611f49565b9060005260206000209060030201606d6000336001600160a01b03166001600160a01b0316815260200190815260200160002084815481106107a4576107a4611f49565b60009182526020909120825460039092020180546001600160a01b0319166001600160a01b03909216919091178155600180830154908201556002918201549101555b336000908152606d6020526040902080548061080557610805611f8c565b6000828152602080822060036000199094019384020180546001600160a01b0319168155600181018390556002019190915591558101518151610856916001600160a01b0391909116903390611315565b80600001516001600160a01b0316336001600160a01b03167f8c2348eef2ad1de705c3b471bf6d7e42e7837ece8c18423a9364241bdc2b53a583602001516040516108a391815260200190565b60405180910390a3505050565b6108b8611248565b6108c2600061137c565b565b3360009081526069602052604081205460ff166109495760405162461bcd60e51b815260206004820152602560248201527f44414f466163746f72793a2063616c6c6572206e6f7420612064616f2061646460448201527f726573732e00000000000000000000000000000000000000000000000000000060648201526084016104ca565b506001600160a01b0381166000908152606a6020526040812080549182919061097183611fa2565b9190505550919050565b610983611248565b606680546001600160a01b0319166001600160a01b0392909216919091179055565b606c60205260009081526040902080546109be90611fbd565b80601f01602080910402602001604051908101604052809291908181526020018280546109ea90611fbd565b8015610a375780601f10610a0c57610100808354040283529160200191610a37565b820191906000526020600020905b815481529060010190602001808311610a1a57829003601f168201915b505050505081565b606b54600090610a57906001600160a01b03166113ce565b60405163253279ad60e01b81529091506001600160a01b0382169063253279ad90610a8c908b908b908a908a90600401611ff8565b600060405180830381600087803b158015610aa657600080fd5b505af1158015610aba573d6000803e3d6000fd5b505050506001600160a01b0381166000908152606c602090815260409091208751610ae7928901906119e8565b50336000908152606e60209081526040822080546001810182559083529082200180546001600160a01b0319166001600160a01b038416179055805b83811015610bf95736858583818110610b3e57610b3e611f49565b606002919091019150606d90506000610b5a6020840184611b1d565b6001600160a01b03908116825260208083019390935260409182016000908120835160608101855289841681528686013581870181815288870135968301968752835460018082018655948652979094209151600390970290910180546001600160a01b031916969094169590951783559051908201559051600290910155610be39084612034565b9250508080610bf190611fa2565b915050610b23565b5080851115610c2657610c2133610c108388611f75565b6001600160a01b0385169190611315565b610c9b565b808514610c9b5760405162461bcd60e51b815260206004820152603160248201527f44414f466163746f72793a20646973747269627574656420616d6f756e74206560448201527f786365656420746f74616c537570706c7900000000000000000000000000000060648201526084016104ca565b6040516001600160a01b038316815233907fb0f993ab8543f13aa84bdeb5c87bd3ff7d528bada24f4c373c452c6b85bb33b89060200160405180910390a2505050505050505050565b606e6020528160005260406000208181548110610d0057600080fd5b6000918252602090912001546001600160a01b03169150829050565b43831015610d775760405162461bcd60e51b815260206004820152602260248201527f44414f466163746f72793a207369676e61747572652077617320657870697265604482015261321760f11b60648201526084016104ca565b6067610d86602088018861204c565b604051610d94929190612093565b9081526040519081900360200190205460ff1615610e005760405162461bcd60e51b8152602060048201526024808201527f44414f466163746f72793a2068616e646c6520697320616c726561647920746160448201526335b2b71760e11b60648201526084016104ca565b6000610e0f602088018861204c565b604051602001610e20929190612093565b60408051808303601f1901815282825280516020918201203360601b6bffffffffffffffffffffffff191682850152466034850152605484018890526074808501829052835180860390910181526094850184528051908301207f19457468657265756d205369676e6564204d6573736167653a0a33320000000060b486015260d0808601919091528351808603909101815260f09094019092528251920191909120909150610f096102308286868080601f01602080910402602001604051908101604052809392919081815260200183838082843760009201919091525061146f92505050565b610f555760405162461bcd60e51b815260206004820152601b60248201527f44414f466163746f72793a20696e76616c6964207369676e65722e000000000060448201526064016104ca565b6000604051610f6390611a6c565b604051809103906000f080158015610f7f573d6000803e3d6000fd5b50604051630ecf3d1360e11b81529091506001600160a01b03821690631d9e7a2690610fb3908c908c908c9060040161217f565b600060405180830381600087803b158015610fcd57600080fd5b505af1158015610fe1573d6000803e3d6000fd5b505060405163f2fde38b60e01b81523360048201528392506001600160a01b038316915063f2fde38b90602401600060405180830381600087803b15801561102857600080fd5b505af115801561103c573d6000803e3d6000fd5b50505050600160678b8060200190611054919061204c565b604051611062929190612093565b908152602001604051809103902060006101000a81548160ff021916908315150217905550600160696000836001600160a01b03166001600160a01b0316815260200190815260200160002060006101000a81548160ff021916908315150217905550806001600160a01b0316336001600160a01b03168560001c7ff79df5de0ebf3efc8701dcd65b1036156fa8e26c1070165aabad66806806445a8c600001358d60200160208101906111169190611b1d565b604080519283526001600160a01b0390911660208301520160405180910390a450505050505050505050565b606d602052816000526040600020818154811061115e57600080fd5b60009182526020909120600390910201805460018201546002909201546001600160a01b03909116935090915083565b611196611248565b606b80546001600160a01b0319166001600160a01b0392909216919091179055565b6111c0611248565b6001600160a01b03811661123c5760405162461bcd60e51b815260206004820152602660248201527f4f776e61626c653a206e6577206f776e657220697320746865207a65726f206160448201527f646472657373000000000000000000000000000000000000000000000000000060648201526084016104ca565b6112458161137c565b50565b6033546001600160a01b031633146108c25760405162461bcd60e51b815260206004820181905260248201527f4f776e61626c653a2063616c6c6572206973206e6f7420746865206f776e657260448201526064016104ca565b600054610100900460ff1661130d5760405162461bcd60e51b815260206004820152602b60248201527f496e697469616c697a61626c653a20636f6e7472616374206973206e6f74206960448201526a6e697469616c697a696e6760a81b60648201526084016104ca565b6108c2611493565b604080516001600160a01b038416602482015260448082018490528251808303909101815260649091019091526020810180517bffffffffffffffffffffffffffffffffffffffffffffffffffffffff1663a9059cbb60e01b179052610574908490611507565b603380546001600160a01b038381166001600160a01b0319831681179093556040519116919082907f8be0079c531659141344cd1fd0a4f28419497f9722a3daafe3b4186f6b6457e090600090a35050565b6000763d602d80600a3d3981f3363d3d373d3d3d363d730000008260601b60e81c176000526e5af43d82803e903d91602b57fd5bf38260781b17602052603760096000f090506001600160a01b03811661146a5760405162461bcd60e51b815260206004820152601660248201527f455243313136373a20637265617465206661696c65640000000000000000000060448201526064016104ca565b919050565b600080600061147e85856115ec565b9150915061148b81611632565b509392505050565b600054610100900460ff166114fe5760405162461bcd60e51b815260206004820152602b60248201527f496e697469616c697a61626c653a20636f6e7472616374206973206e6f74206960448201526a6e697469616c697a696e6760a81b60648201526084016104ca565b6108c23361137c565b600061155c826040518060400160405280602081526020017f5361666545524332303a206c6f772d6c6576656c2063616c6c206661696c6564815250856001600160a01b03166117809092919063ffffffff16565b805190915015610574578080602001905181019061157a9190612310565b6105745760405162461bcd60e51b815260206004820152602a60248201527f5361666545524332303a204552433230206f7065726174696f6e20646964206e60448201527f6f7420737563636565640000000000000000000000000000000000000000000060648201526084016104ca565b6000808251604114156116235760208301516040840151606085015160001a61161787828585611797565b9450945050505061162b565b506000905060025b9250929050565b600081600481111561164657611646612134565b141561164f5750565b600181600481111561166357611663612134565b14156116b15760405162461bcd60e51b815260206004820152601860248201527f45434453413a20696e76616c6964207369676e6174757265000000000000000060448201526064016104ca565b60028160048111156116c5576116c5612134565b14156117135760405162461bcd60e51b815260206004820152601f60248201527f45434453413a20696e76616c6964207369676e6174757265206c656e6774680060448201526064016104ca565b600381600481111561172757611727612134565b14156112455760405162461bcd60e51b815260206004820152602260248201527f45434453413a20696e76616c6964207369676e6174757265202773272076616c604482015261756560f01b60648201526084016104ca565b606061178f848460008561185b565b949350505050565b6000807f7fffffffffffffffffffffffffffffff5d576e7357a4501ddfe92f46681b20a08311156117ce5750600090506003611852565b6040805160008082526020820180845289905260ff881692820192909252606081018690526080810185905260019060a0016020604051602081039080840390855afa158015611822573d6000803e3d6000fd5b5050604051601f1901519150506001600160a01b03811661184b57600060019250925050611852565b9150600090505b94509492505050565b6060824710156118d35760405162461bcd60e51b815260206004820152602660248201527f416464726573733a20696e73756666696369656e742062616c616e636520666f60448201527f722063616c6c000000000000000000000000000000000000000000000000000060648201526084016104ca565b600080866001600160a01b031685876040516118ef919061232d565b60006040518083038185875af1925050503d806000811461192c576040519150601f19603f3d011682016040523d82523d6000602084013e611931565b606091505b50915091506119428783838761194d565b979650505050505050565b606083156119b95782516119b2576001600160a01b0385163b6119b25760405162461bcd60e51b815260206004820152601d60248201527f416464726573733a2063616c6c20746f206e6f6e2d636f6e747261637400000060448201526064016104ca565b508161178f565b61178f83838151156119ce5781518083602001fd5b8060405162461bcd60e51b81526004016104ca9190611c16565b8280546119f490611fbd565b90600052602060002090601f016020900481019282611a165760008555611a5c565b82601f10611a2f57805160ff1916838001178555611a5c565b82800160010185558215611a5c579182015b82811115611a5c578251825591602001919060010190611a41565b50611a68929150611a79565b5090565b613b318061234a83390190565b5b80821115611a685760008155600101611a7a565b80356001600160a01b038116811461146a57600080fd5b801515811461124557600080fd5b60008060408385031215611ac657600080fd5b611acf83611a8e565b91506020830135611adf81611aa5565b809150509250929050565b60008060408385031215611afd57600080fd5b611b0683611a8e565b9150611b1460208401611a8e565b90509250929050565b600060208284031215611b2f57600080fd5b611b3882611a8e565b9392505050565b602080825282518282018190526000919060409081850190868401855b82811015611b9457815180516001600160a01b0316855286810151878601528501518585015260609093019290850190600101611b5c565b5091979650505050505050565b600060208284031215611bb357600080fd5b5035919050565b60005b83811015611bd5578181015183820152602001611bbd565b83811115611be4576000848401525b50505050565b60008151808452611c02816020860160208601611bba565b601f01601f19169290920160200192915050565b602081526000611b386020830184611bea565b634e487b7160e01b600052604160045260246000fd5b600082601f830112611c5057600080fd5b813567ffffffffffffffff80821115611c6b57611c6b611c29565b604051601f8301601f19908116603f01168101908282118183101715611c9357611c93611c29565b81604052838152866020858801011115611cac57600080fd5b836020870160208301376000602085830101528094505050505092915050565b803560ff8116811461146a57600080fd5b60008083601f840112611cef57600080fd5b50813567ffffffffffffffff811115611d0757600080fd5b60208301915083602060608302850101111561162b57600080fd5b600080600080600080600060c0888a031215611d3d57600080fd5b873567ffffffffffffffff80821115611d5557600080fd5b611d618b838c01611c3f565b985060208a0135915080821115611d7757600080fd5b611d838b838c01611c3f565b975060408a0135915080821115611d9957600080fd5b611da58b838c01611c3f565b9650611db360608b01611ccc565b955060808a0135945060a08a0135915080821115611dd057600080fd5b50611ddd8a828b01611cdd565b989b979a50959850939692959293505050565b60008060408385031215611e0357600080fd5b611e0c83611a8e565b946020939093013593505050565b60008083601f840112611e2c57600080fd5b50813567ffffffffffffffff811115611e4457600080fd5b60208301915083602082850101111561162b57600080fd5b60008060008060008086880361012080821215611e7857600080fd5b883567ffffffffffffffff80821115611e9057600080fd5b818b01915082828d031215611ea457600080fd5b8199506040601f1985011215611eb957600080fd5b60208b0198506080605f1985011215611ed157600080fd5b60608b01975060e08b013596506101008b0135935080841115611ef357600080fd5b505050611f0289828a01611e1a565b979a9699509497509295939492505050565b600060208284031215611f2657600080fd5b813567ffffffffffffffff811115611f3d57600080fd5b61178f84828501611c3f565b634e487b7160e01b600052603260045260246000fd5b634e487b7160e01b600052601160045260246000fd5b600082821015611f8757611f87611f5f565b500390565b634e487b7160e01b600052603160045260246000fd5b6000600019821415611fb657611fb6611f5f565b5060010190565b600181811c90821680611fd157607f821691505b60208210811415611ff257634e487b7160e01b600052602260045260246000fd5b50919050565b60808152600061200b6080830187611bea565b828103602084015261201d8187611bea565b60ff95909516604084015250506060015292915050565b6000821982111561204757612047611f5f565b500190565b6000808335601e1984360301811261206357600080fd5b83018035915067ffffffffffffffff82111561207e57600080fd5b60200191503681900382131561162b57600080fd5b8183823760009101908152919050565b6000808335601e198436030181126120ba57600080fd5b830160208101925035905067ffffffffffffffff8111156120da57600080fd5b80360383131561162b57600080fd5b81835281816020850137506000828201602090810191909152601f909101601f19169091010190565b803582526001600160a01b0361212a60208301611a8e565b1660208301525050565b634e487b7160e01b600052602160045260246000fd5b80358252602081013560208301526040810135604083015260608101356003811061217457600080fd5b806060840152505050565b60e08152600061218f85866120a3565b6101208060e08601526121a7610200860183856120e9565b92506121b660208901896120a3565b925060df196101008188870301818901526121d28686856120e9565b95506121e160408c018c6120a3565b955092508188870301848901526121f98686856120e9565b955061220860608c018c6120a3565b9550935081888703016101408901526122228686866120e9565b955061223160808c018c6120a3565b95509350818887030161016089015261224b8686866120e9565b955061225a60a08c018c6120a3565b9550935081888703016101808901526122748686866120e9565b955061228360c08c018c6120a3565b9550935081888703016101a089015261229d8686866120e9565b95506122ac60e08c018c6120a3565b9550935081888703016101c08901526122c68686866120e9565b95506122d4818c018c6120a3565b955093505080878603016101e088015250506122f18383836120e9565b93505050506123036020830185612112565b61178f606083018461214a565b60006020828403121561232257600080fd5b8151611b3881611aa5565b6000825161233f818460208701611bba565b919091019291505056fe608060405234801561001057600080fd5b50613b11806100206000396000f3fe608060405234801561001057600080fd5b50600436106101985760003560e01c80636008de42116100e3578063a69312041161008c578063ccdde11d11610066578063ccdde11d146103f2578063e0a8f6f514610405578063f2fde38b1461041857600080fd5b8063a6931204146103ba578063afe926e8146103c2578063c318dd57146103df57600080fd5b80638a25211f116100bd5780638a25211f146103625780638da5cb5b14610382578063966dae0e146103a757600080fd5b80636008de421461034a5780636ae3388a14610352578063715018a61461035a57600080fd5b80633d4e5ddd116101455780634aee622d1161011f5780634aee622d146103005780634b0bddd2146103205780635977e0f21461033357600080fd5b80633d4e5ddd14610270578063429b62e5146102995780634914b030146102cc57600080fd5b80631d9e7a26116101765780631d9e7a261461020b5780632078566d1461021e57806336834b061461023157600080fd5b8063013cf08b1461019d57806312af9198146101ce5780631577d311146101e3575b600080fd5b6101b06101ab366004613010565b61042b565b6040516101c5999897969594939291906130ae565b60405180910390f35b6101e16101dc366004613177565b61061c565b005b6101f66101f13660046131ce565b610aa6565b604080519283526020830191909152016101c5565b6101e161021936600461321b565b610af0565b6101e161022c3660046132e0565b610c55565b604080518082018252600681527f76302e322e310000000000000000000000000000000000000000000000000000602082015290516101c59190613392565b6071546072546073546074546102899392919060ff1684565b6040516101c594939291906133a5565b6102bc6102a73660046133d0565b60756020526000908152604090205460ff1681565b60405190151581526020016101c5565b606f546070546102e391906001600160a01b031682565b604080519283526001600160a01b039091166020830152016101c5565b61031361030e3660046133ed565b61114d565b6040516101c59190613419565b6101e161032e366004613476565b6111df565b61033c60765481565b6040519081526020016101c5565b61033c600181565b61033c600281565b6101e16111f1565b610375610370366004613010565b611205565b6040516101c591906134af565b6033546001600160a01b03165b6040516001600160a01b0390911681526020016101c5565b60655461038f906001600160a01b031681565b61033c600081565b6103ca611316565b6040516101c599989796959493929190613525565b6101e16103ed3660046135ea565b611818565b6101e1610400366004613606565b6118ba565b6101e1610413366004613010565b61214d565b6101e16104263660046133d0565b612636565b6077602052600090815260409020805460018201805460ff8316936101009093046001600160a01b0316929190610461906136b6565b80601f016020809104026020016040519081016040528092919081815260200182805461048d906136b6565b80156104da5780601f106104af576101008083540402835291602001916104da565b820191906000526020600020905b8154815290600101906020018083116104bd57829003601f168201915b5050505050908060020180546104ef906136b6565b80601f016020809104026020016040519081016040528092919081815260200182805461051b906136b6565b80156105685780601f1061053d57610100808354040283529160200191610568565b820191906000526020600020905b81548152906001019060200180831161054b57829003601f168201915b50505050509080600301805461057d906136b6565b80601f01602080910402602001604051908101604052809291908181526020018280546105a9906136b6565b80156105f65780601f106105cb576101008083540402835291602001916105f6565b820191906000526020600020905b8154815290600101906020018083116105d957829003601f168201915b505050506004830154600584015460068501546007909501549394919390925060ff1689565b3361062f6033546001600160a01b031690565b6001600160a01b0316148061065357503360009081526075602052604090205460ff165b6106b75760405162461bcd60e51b815260206004820152602a60248201527f44414f426173653a2063616c6c6572206973206e6f7420746865206f776e65726044820152691037b91030b236b4b71760b11b60648201526084015b60405180910390fd5b600881146107075760405162461bcd60e51b815260206004820152601960248201527f44414f426173653a206c656e677468206d69736d617463682e0000000000000060448201526064016106ae565b610aa260405180610120016040528084846000818110610729576107296136eb565b905060200281019061073b9190613701565b8080601f01602080910402602001604051908101604052809392919081815260200183838082843760009201919091525050509082525060678054602090920191610785906136b6565b80601f01602080910402602001604051908101604052809291908181526020018280546107b1906136b6565b80156107fe5780601f106107d3576101008083540402835291602001916107fe565b820191906000526020600020905b8154815290600101906020018083116107e157829003601f168201915b505050505081526020018484600181811061081b5761081b6136eb565b905060200281019061082d9190613701565b8080601f0160208091040260200160405190810160405280939291908181526020018383808284376000920191909152505050908252506020018484600281811061087a5761087a6136eb565b905060200281019061088c9190613701565b8080601f016020809104026020016040519081016040528093929190818152602001838380828437600092019190915250505090825250602001848460038181106108d9576108d96136eb565b90506020028101906108eb9190613701565b8080601f01602080910402602001604051908101604052809392919081815260200183838082843760009201919091525050509082525060200184846004818110610938576109386136eb565b905060200281019061094a9190613701565b8080601f01602080910402602001604051908101604052809392919081815260200183838082843760009201919091525050509082525060200184846005818110610997576109976136eb565b90506020028101906109a99190613701565b8080601f016020809104026020016040519081016040528093929190818152602001838380828437600092019190915250505090825250602001848460068181106109f6576109f66136eb565b9050602002810190610a089190613701565b8080601f01602080910402602001604051908101604052809392919081815260200183838082843760009201919091525050509082525060200184846007818110610a5557610a556136eb565b9050602002810190610a679190613701565b8080601f01602080910402602001604051908101604052809392919081815260200183838082843760009201919091525050509152506126c3565b5050565b60786020528260005260406000206020528160005260406000208181548110610ace57600080fd5b6000918252602090912060029091020180546001909101549093509150839050565b600054610100900460ff1615808015610b105750600054600160ff909116105b80610b2a5750303b158015610b2a575060005460ff166001145b610b9c5760405162461bcd60e51b815260206004820152602e60248201527f496e697469616c697a61626c653a20636f6e747261637420697320616c72656160448201527f647920696e697469616c697a656400000000000000000000000000000000000060648201526084016106ae565b6000805460ff191660011790558015610bbf576000805461ff0019166101001790555b6065805473ffffffffffffffffffffffffffffffffffffffff191633179055610be66127ec565b610bf7610bf285613815565b6126c3565b610c008361285f565b610c098261289d565b8015610c4f576000805461ff0019169055604051600181527f7f26b83ff96e1f2b6a682f133852f6798a09c465da95921460cefb38474024989060200160405180910390a15b50505050565b6040805160808101825260718054825260725460208301526073549282019290925260745460009290606083019060ff166002811115610c9757610c97613076565b6002811115610ca857610ca8613076565b90525090506000610cbf60c0890160a08a01613998565b6002811115610cd057610cd0613076565b14158015610d315750600081606001516002811115610cf157610cf1613076565b1480610d315750610d0860c0880160a08901613998565b6002811115610d1957610d19613076565b81606001516002811115610d2f57610d2f613076565b145b610d7d5760405162461bcd60e51b815260206004820152601d60248201527f44414f426173653a20696e76616c696420766f74696e6720747970652e00000060448201526064016106ae565b4284608001351015610dd15760405162461bcd60e51b815260206004820152601160248201527f44414f426173653a20657870697265642e00000000000000000000000000000060448201526064016106ae565b610ddc8484846128db565b610e285760405162461bcd60e51b815260206004820152601860248201527f44414f426173653a20696e76616c6964207369676e65722e000000000000000060448201526064016106ae565b805160408501351015610e7d5760405162461bcd60e51b815260206004820152601e60248201527f44414f426173653a20696e73756666696369656e742062616c616e63652e000060448201526064016106ae565b604081015160808801359015610ea3576040820151610ea09060608a01356139cb565b90505b8760800135886060013510610efa5760405162461bcd60e51b815260206004820152601e60248201527f44414f426173653a20737461727454696d6520676520656e6454696d652e000060448201526064016106ae565b85610f525760405162461bcd60e51b815260206004820152602260248201527f44414f426173653a20646f6e74206861766520656e6f756768206f7074696f6e604482015261399760f11b60648201526084016106ae565b607654610f608160016139cb565b6076556000818152607760205260408120905b88811015611034578160080160405180604001604052808c8c85818110610f9c57610f9c6136eb565b9050602002810190610fae9190613701565b8080601f016020809104026020016040519081016040528093929190818152602001838380828437600092018290525093855250505060209182018190528354600181018555938152819020825180519394600202909101926110149284920190612f03565b50602082015181600101555050808061102c906139e3565b915050610f73565b5080547fffffffffffffffffffffff0000000000000000000000000000000000000000ff16336101000217815561106b8a80613701565b611079916001840191612f87565b5061108760208b018b613701565b611095916002840191612f87565b506110a360408b018b613701565b6110b1916003840191612f87565b5060608a0135600482015560058101839055602084015160068201556110dd60c08b0160a08c01613998565b60078201805460ff191660018360028111156110fb576110fb613076565b02179055506040805160608c0135815260208101859052339184917f5545569dacba1911f566fc269ba3d83677a5d71c2afd5bc6f4762253b98e9d58910160405180910390a350505050505050505050565b6001600160a01b03821660009081526078602090815260408083208484528252808320805482518185028101850190935280835260609492939192909184015b828210156111d35783829060005260206000209060020201604051806040016040529081600082015481526020016001820154815250508152602001906001019061118d565b50505050905092915050565b6111e7612afb565b610aa28282612b55565b6111f9612afb565b6112036000612bb4565b565b606060776000838152602001908152602001600020600801805480602002602001604051908101604052809291908181526020016000905b8282101561130b5783829060005260206000209060020201604051806040016040529081600082018054611270906136b6565b80601f016020809104026020016040519081016040528092919081815260200182805461129c906136b6565b80156112e95780601f106112be576101008083540402835291602001916112e9565b820191906000526020600020905b8154815290600101906020018083116112cc57829003601f168201915b505050505081526020016001820154815250508152602001906001019061123d565b505050509050919050565b606680548190611325906136b6565b80601f0160208091040260200160405190810160405280929190818152602001828054611351906136b6565b801561139e5780601f106113735761010080835404028352916020019161139e565b820191906000526020600020905b81548152906001019060200180831161138157829003601f168201915b5050505050908060010180546113b3906136b6565b80601f01602080910402602001604051908101604052809291908181526020018280546113df906136b6565b801561142c5780601f106114015761010080835404028352916020019161142c565b820191906000526020600020905b81548152906001019060200180831161140f57829003601f168201915b505050505090806002018054611441906136b6565b80601f016020809104026020016040519081016040528092919081815260200182805461146d906136b6565b80156114ba5780601f1061148f576101008083540402835291602001916114ba565b820191906000526020600020905b81548152906001019060200180831161149d57829003601f168201915b5050505050908060030180546114cf906136b6565b80601f01602080910402602001604051908101604052809291908181526020018280546114fb906136b6565b80156115485780601f1061151d57610100808354040283529160200191611548565b820191906000526020600020905b81548152906001019060200180831161152b57829003601f168201915b50505050509080600401805461155d906136b6565b80601f0160208091040260200160405190810160405280929190818152602001828054611589906136b6565b80156115d65780601f106115ab576101008083540402835291602001916115d6565b820191906000526020600020905b8154815290600101906020018083116115b957829003601f168201915b5050505050908060050180546115eb906136b6565b80601f0160208091040260200160405190810160405280929190818152602001828054611617906136b6565b80156116645780601f1061163957610100808354040283529160200191611664565b820191906000526020600020905b81548152906001019060200180831161164757829003601f168201915b505050505090806006018054611679906136b6565b80601f01602080910402602001604051908101604052809291908181526020018280546116a5906136b6565b80156116f25780601f106116c7576101008083540402835291602001916116f2565b820191906000526020600020905b8154815290600101906020018083116116d557829003601f168201915b505050505090806007018054611707906136b6565b80601f0160208091040260200160405190810160405280929190818152602001828054611733906136b6565b80156117805780601f1061175557610100808354040283529160200191611780565b820191906000526020600020905b81548152906001019060200180831161176357829003601f168201915b505050505090806008018054611795906136b6565b80601f01602080910402602001604051908101604052809291908181526020018280546117c1906136b6565b801561180e5780601f106117e35761010080835404028352916020019161180e565b820191906000526020600020905b8154815290600101906020018083116117f157829003601f168201915b5050505050905089565b3361182b6033546001600160a01b031690565b6001600160a01b0316148061184f57503360009081526075602052604090205460ff165b6118ae5760405162461bcd60e51b815260206004820152602a60248201527f44414f426173653a2063616c6c6572206973206e6f7420746865206f776e65726044820152691037b91030b236b4b71760b11b60648201526084016106ae565b6118b78161289d565b50565b60808301356000818152607760209081526040808320815161014081018352815460ff81161515825261010090046001600160a01b031693810193909352600181018054919284019161190c906136b6565b80601f0160208091040260200160405190810160405280929190818152602001828054611938906136b6565b80156119855780601f1061195a57610100808354040283529160200191611985565b820191906000526020600020905b81548152906001019060200180831161196857829003601f168201915b5050505050815260200160028201805461199e906136b6565b80601f01602080910402602001604051908101604052809291908181526020018280546119ca906136b6565b8015611a175780601f106119ec57610100808354040283529160200191611a17565b820191906000526020600020905b8154815290600101906020018083116119fa57829003601f168201915b50505050508152602001600382018054611a30906136b6565b80601f0160208091040260200160405190810160405280929190818152602001828054611a5c906136b6565b8015611aa95780601f10611a7e57610100808354040283529160200191611aa9565b820191906000526020600020905b815481529060010190602001808311611a8c57829003601f168201915b5050509183525050600482015460208201526005820154604082015260068201546060820152600782015460809091019060ff166002811115611aee57611aee613076565b6002811115611aff57611aff613076565b815260200160088201805480602002602001604051908101604052809291908181526020016000905b82821015611bf65783829060005260206000209060020201604051806040016040529081600082018054611b5b906136b6565b80601f0160208091040260200160405190810160405280929190818152602001828054611b87906136b6565b8015611bd45780601f10611ba957610100808354040283529160200191611bd4565b820191906000526020600020905b815481529060010190602001808311611bb757829003601f168201915b5050505050815260200160018201548152505081526020019060010190611b28565b505050508152505090508160765411611c515760405162461bcd60e51b815260206004820181905260248201527f44414f426173653a2070726f706f73616c206964206e6f74206578697374732e60448201526064016106ae565b878614611ca05760405162461bcd60e51b815260206004820152601860248201527f44414f426173653a20696e76616c6964206c656e6774682e000000000000000060448201526064016106ae565b33600090815260786020908152604080832085845290915290205415611d085760405162461bcd60e51b815260206004820152601760248201527f44414f426173653a20616c726561647920766f7465642e00000000000000000060448201526064016106ae565b611d138585856128db565b611d5f5760405162461bcd60e51b815260206004820152601860248201527f44414f426173653a20696e76616c6964207369676e65722e000000000000000060448201526064016106ae565b8060a001514210158015611d7657508060c0015142105b611dc25760405162461bcd60e51b815260206004820152601e60248201527f44414f426173653a20766f7465206f6e20612077726f6e672074696d652e000060448201526064016106ae565b805115611e115760405162461bcd60e51b815260206004820152601a60248201527f44414f426173653a20616c72656164792063616e63656c65642e00000000000060448201526064016106ae565b600160008381526077602052604090206007015460ff166002811115611e3957611e39613076565b1415611e8f5760018814611e8f5760405162461bcd60e51b815260206004820152601860248201527f44414f426173653a20696e76616c6964206c656e6774682e000000000000000060448201526064016106ae565b600082815260776020526040812060080154815b8a8110156120eb578b8b82818110611ebd57611ebd6136eb565b905060200201358211611f385760405162461bcd60e51b815260206004820152602a60248201527f44414f426173653a2070726f706f73616c206f7074696f6e20696e646578206e60448201527f6f74206578697374732e0000000000000000000000000000000000000000000060648201526084016106ae565b898982818110611f4a57611f4a6136eb565b9050602002013583611f5c91906139cb565b9250898982818110611f7057611f706136eb565b90506020020135607760008781526020019081526020016000206008018d8d84818110611f9f57611f9f6136eb565b9050602002013581548110611fb657611fb66136eb565b90600052602060002090600202016001016000828254611fd691906139cb565b909155505033600090815260786020908152604080832088845290915290819020815180830190925290808e8e85818110612013576120136136eb565b9050602002013581526020018c8c85818110612031576120316136eb565b6020908102929092013590925283546001818101865560009586529482902084516002909202019081559201519190920155508b8b82818110612076576120766136eb565b90506020020135336001600160a01b0316867f691caaa3fac07e755c9e46e4877cbd04f37fd1b9be1bfc9851f6a520aad29c138d8d868181106120bb576120bb6136eb565b905060200201356040516120d191815260200190565b60405180910390a4806120e3816139e3565b915050611ea3565b5081876040013510156121405760405162461bcd60e51b815260206004820152601e60248201527f44414f426173653a20696e73756666696369656e742062616c616e63652e000060448201526064016106ae565b5050505050505050505050565b6000818152607760209081526040808320815161014081018352815460ff81161515825261010090046001600160a01b031693810193909352600181018054919284019161219a906136b6565b80601f01602080910402602001604051908101604052809291908181526020018280546121c6906136b6565b80156122135780601f106121e857610100808354040283529160200191612213565b820191906000526020600020905b8154815290600101906020018083116121f657829003601f168201915b5050505050815260200160028201805461222c906136b6565b80601f0160208091040260200160405190810160405280929190818152602001828054612258906136b6565b80156122a55780601f1061227a576101008083540402835291602001916122a5565b820191906000526020600020905b81548152906001019060200180831161228857829003601f168201915b505050505081526020016003820180546122be906136b6565b80601f01602080910402602001604051908101604052809291908181526020018280546122ea906136b6565b80156123375780601f1061230c57610100808354040283529160200191612337565b820191906000526020600020905b81548152906001019060200180831161231a57829003601f168201915b5050509183525050600482015460208201526005820154604082015260068201546060820152600782015460809091019060ff16600281111561237c5761237c613076565b600281111561238d5761238d613076565b815260200160088201805480602002602001604051908101604052809291908181526020016000905b8282101561248457838290600052602060002090600202016040518060400160405290816000820180546123e9906136b6565b80601f0160208091040260200160405190810160405280929190818152602001828054612415906136b6565b80156124625780601f1061243757610100808354040283529160200191612462565b820191906000526020600020905b81548152906001019060200180831161244557829003601f168201915b50505050508152602001600182015481525050815260200190600101906123b6565b5050505081525050905081607654116124df5760405162461bcd60e51b815260206004820181905260248201527f44414f426173653a2070726f706f73616c206964206e6f74206578697374732e60448201526064016106ae565b8060a0015142106125325760405162461bcd60e51b815260206004820152601960248201527f44414f426173653a20616c726561647920737461727465642e0000000000000060448201526064016106ae565b80602001516001600160a01b0316336001600160a01b0316146125a35760405162461bcd60e51b815260206004820152602360248201527f44414f426173653a2073656e646572206973206e6f742074686520637265617460448201526237b91760e91b60648201526084016106ae565b8051156125f25760405162461bcd60e51b815260206004820152601a60248201527f44414f426173653a20616c72656164792063616e63656c65642e00000000000060448201526064016106ae565b600082815260776020526040808220805460ff191660011790555183917f8896f24cff41b54acf76c2560861f33cd20fd76c4df0b68a3515c354e4b6c81a91a25050565b61263e612afb565b6001600160a01b0381166126ba5760405162461bcd60e51b815260206004820152602660248201527f4f776e61626c653a206e6577206f776e657220697320746865207a65726f206160448201527f646472657373000000000000000000000000000000000000000000000000000060648201526084016106ae565b6118b781612bb4565b8051805182916066916126dd918391602090910190612f03565b5060208281015180516126f69260018501920190612f03565b5060408201518051612712916002840191602090910190612f03565b506060820151805161272e916003840191602090910190612f03565b506080820151805161274a916004840191602090910190612f03565b5060a08201518051612766916005840191602090910190612f03565b5060c08201518051612782916006840191602090910190612f03565b5060e0820151805161279e916007840191602090910190612f03565b5061010082015180516127bb916008840191602090910190612f03565b5050604051600091507f1f699cf30a85165a1f161e64b4b428f54e60dd974a70166b0816674c70d4f17b908290a250565b600054610100900460ff166128575760405162461bcd60e51b815260206004820152602b60248201527f496e697469616c697a61626c653a20636f6e7472616374206973206e6f74206960448201526a6e697469616c697a696e6760a81b60648201526084016106ae565b611203612c13565b80606f61286c82826139fe565b50506040516001907f1f699cf30a85165a1f161e64b4b428f54e60dd974a70166b0816674c70d4f17b90600090a250565b8060716128aa8282613a40565b50506040516002907f1f699cf30a85165a1f161e64b4b428f54e60dd974a70166b0816674c70d4f17b90600090a250565b606f54600090843514158061291357506070546001600160a01b031661290760408601602087016133d0565b6001600160a01b031614155b1561292057506000612af4565b6000612a2c334630883561293a60408b0160208c016133d0565b60808b0180359060408d0135906129549060608f01613a9d565b600181111561296557612965613076565b6040516bffffffffffffffffffffffff196060998a1b81166020830152603482019890985295881b8716605487015260688601949094529190951b9093166088830152609c82019390935260bc81019190915260dc81019190915260fc01604051602081830303815290604052805190602001206040517f19457468657265756d205369676e6564204d6573736167653a0a3332000000006020820152603c8101829052600090605c01604051602081830303815290604052805190602001209050919050565b90506000612a708286868080601f016020809104026020016040519081016040528093929190818152602001838380828437600092019190915250612c8792505050565b606554604051637df73e2760e01b81526001600160a01b038084166004830152929350911690637df73e279060240160206040518083038186803b158015612ab757600080fd5b505afa158015612acb573d6000803e3d6000fd5b505050506040513d601f19601f82011682018060405250810190612aef9190613abe565b925050505b9392505050565b6033546001600160a01b031633146112035760405162461bcd60e51b815260206004820181905260248201527f4f776e61626c653a2063616c6c6572206973206e6f7420746865206f776e657260448201526064016106ae565b6001600160a01b038216600081815260756020908152604091829020805460ff191685151590811790915591519182527f132a9997e52e2c9a263663f4e0d70844d7e683776839188028d514deea1fb13e910160405180910390a25050565b603380546001600160a01b0383811673ffffffffffffffffffffffffffffffffffffffff19831681179093556040519116919082907f8be0079c531659141344cd1fd0a4f28419497f9722a3daafe3b4186f6b6457e090600090a35050565b600054610100900460ff16612c7e5760405162461bcd60e51b815260206004820152602b60248201527f496e697469616c697a61626c653a20636f6e7472616374206973206e6f74206960448201526a6e697469616c697a696e6760a81b60648201526084016106ae565b61120333612bb4565b6000806000612c968585612cab565b91509150612ca381612cf1565b509392505050565b600080825160411415612ce25760208301516040840151606085015160001a612cd687828585612e3f565b94509450505050612cea565b506000905060025b9250929050565b6000816004811115612d0557612d05613076565b1415612d0e5750565b6001816004811115612d2257612d22613076565b1415612d705760405162461bcd60e51b815260206004820152601860248201527f45434453413a20696e76616c6964207369676e6174757265000000000000000060448201526064016106ae565b6002816004811115612d8457612d84613076565b1415612dd25760405162461bcd60e51b815260206004820152601f60248201527f45434453413a20696e76616c6964207369676e6174757265206c656e6774680060448201526064016106ae565b6003816004811115612de657612de6613076565b14156118b75760405162461bcd60e51b815260206004820152602260248201527f45434453413a20696e76616c6964207369676e6174757265202773272076616c604482015261756560f01b60648201526084016106ae565b6000807f7fffffffffffffffffffffffffffffff5d576e7357a4501ddfe92f46681b20a0831115612e765750600090506003612efa565b6040805160008082526020820180845289905260ff881692820192909252606081018690526080810185905260019060a0016020604051602081039080840390855afa158015612eca573d6000803e3d6000fd5b5050604051601f1901519150506001600160a01b038116612ef357600060019250925050612efa565b9150600090505b94509492505050565b828054612f0f906136b6565b90600052602060002090601f016020900481019282612f315760008555612f77565b82601f10612f4a57805160ff1916838001178555612f77565b82800160010185558215612f77579182015b82811115612f77578251825591602001919060010190612f5c565b50612f83929150612ffb565b5090565b828054612f93906136b6565b90600052602060002090601f016020900481019282612fb55760008555612f77565b82601f10612fce5782800160ff19823516178555612f77565b82800160010185558215612f77579182015b82811115612f77578235825591602001919060010190612fe0565b5b80821115612f835760008155600101612ffc565b60006020828403121561302257600080fd5b5035919050565b6000815180845260005b8181101561304f57602081850181015186830182015201613033565b81811115613061576000602083870101525b50601f01601f19169290920160200192915050565b634e487b7160e01b600052602160045260246000fd5b600381106130aa57634e487b7160e01b600052602160045260246000fd5b9052565b60006101208b151583526001600160a01b038b1660208401528060408401526130d98184018b613029565b905082810360608401526130ed818a613029565b905082810360808401526131018189613029565b9150508560a08301528460c08301528360e083015261312461010083018461308c565b9a9950505050505050505050565b60008083601f84011261314457600080fd5b50813567ffffffffffffffff81111561315c57600080fd5b6020830191508360208260051b8501011115612cea57600080fd5b6000806020838503121561318a57600080fd5b823567ffffffffffffffff8111156131a157600080fd5b6131ad85828601613132565b90969095509350505050565b6001600160a01b03811681146118b757600080fd5b6000806000606084860312156131e357600080fd5b83356131ee816131b9565b95602085013595506040909401359392505050565b60006080828403121561321557600080fd5b50919050565b600080600083850360e081121561323157600080fd5b843567ffffffffffffffff81111561324857600080fd5b8501610120818803121561325b57600080fd5b93506040601f198201121561326f57600080fd5b506020840191506132838560608601613203565b90509250925092565b600060a0828403121561321557600080fd5b60008083601f8401126132b057600080fd5b50813567ffffffffffffffff8111156132c857600080fd5b602083019150836020828501011115612cea57600080fd5b60008060008060008061010087890312156132fa57600080fd5b863567ffffffffffffffff8082111561331257600080fd5b9088019060c0828b03121561332657600080fd5b9096506020880135908082111561333c57600080fd5b6133488a838b01613132565b909750955085915061335d8a60408b0161328c565b945060e089013591508082111561337357600080fd5b5061338089828a0161329e565b979a9699509497509295939492505050565b602081526000612af46020830184613029565b8481526020810184905260408101839052608081016133c7606083018461308c565b95945050505050565b6000602082840312156133e257600080fd5b8135612af4816131b9565b6000806040838503121561340057600080fd5b823561340b816131b9565b946020939093013593505050565b602080825282518282018190526000919060409081850190868401855b8281101561345b57815180518552860151868501529284019290850190600101613436565b5091979650505050505050565b80151581146118b757600080fd5b6000806040838503121561348957600080fd5b8235613494816131b9565b915060208301356134a481613468565b809150509250929050565b60006020808301818452808551808352604092508286019150828160051b87010184880160005b8381101561351757888303603f19018552815180518785526134fa88860182613029565b9189015194890194909452948701949250908601906001016134d6565b509098975050505050505050565b60006101208083526135398184018d613029565b9050828103602084015261354d818c613029565b90508281036040840152613561818b613029565b90508281036060840152613575818a613029565b905082810360808401526135898189613029565b905082810360a084015261359d8188613029565b905082810360c08401526135b18187613029565b905082810360e08401526135c58186613029565b90508281036101008401526135da8185613029565b9c9b505050505050505050505050565b6000608082840312156135fc57600080fd5b612af48383613203565b6000806000806000806000610100888a03121561362257600080fd5b873567ffffffffffffffff8082111561363a57600080fd5b6136468b838c01613132565b909950975060208a013591508082111561365f57600080fd5b61366b8b838c01613132565b90975095508591506136808b60408c0161328c565b945060e08a013591508082111561369657600080fd5b506136a38a828b0161329e565b989b979a50959850939692959293505050565b600181811c908216806136ca57607f821691505b6020821081141561321557634e487b7160e01b600052602260045260246000fd5b634e487b7160e01b600052603260045260246000fd5b6000808335601e1984360301811261371857600080fd5b83018035915067ffffffffffffffff82111561373357600080fd5b602001915036819003821315612cea57600080fd5b634e487b7160e01b600052604160045260246000fd5b604051610120810167ffffffffffffffff8111828210171561378257613782613748565b60405290565b600082601f83011261379957600080fd5b813567ffffffffffffffff808211156137b4576137b4613748565b604051601f8301601f19908116603f011681019082821181831017156137dc576137dc613748565b816040528381528660208588010111156137f557600080fd5b836020870160208301376000602085830101528094505050505092915050565b6000610120823603121561382857600080fd5b61383061375e565b823567ffffffffffffffff8082111561384857600080fd5b61385436838701613788565b8352602085013591508082111561386a57600080fd5b61387636838701613788565b6020840152604085013591508082111561388f57600080fd5b61389b36838701613788565b604084015260608501359150808211156138b457600080fd5b6138c036838701613788565b606084015260808501359150808211156138d957600080fd5b6138e536838701613788565b608084015260a08501359150808211156138fe57600080fd5b61390a36838701613788565b60a084015260c085013591508082111561392357600080fd5b61392f36838701613788565b60c084015260e085013591508082111561394857600080fd5b61395436838701613788565b60e08401526101009150818501358181111561396f57600080fd5b61397b36828801613788565b8385015250505080915050919050565b600381106118b757600080fd5b6000602082840312156139aa57600080fd5b8135612af48161398b565b634e487b7160e01b600052601160045260246000fd5b600082198211156139de576139de6139b5565b500190565b60006000198214156139f7576139f76139b5565b5060010190565b81358155600181016020830135613a14816131b9565b6001600160a01b03811673ffffffffffffffffffffffffffffffffffffffff1983541617825550505050565b813581556020820135600182015560408201356002820155600381016060830135613a6a8161398b565b60038110613a8857634e487b7160e01b600052602160045260246000fd5b60ff1982541660ff8216811783555050505050565b600060208284031215613aaf57600080fd5b813560028110612af457600080fd5b600060208284031215613ad057600080fd5b8151612af48161346856fea2646970667358221220e75cd70131b5e558bd60454fc59503f9334167707e20e2858ca8060fab72718064736f6c63430008090033a26469706673582212207810784c863b4b89c7a76cf48b79fc5a2ebb0863e03ca67ff0d5f70a6b4b794b64736f6c63430008090033",
  "devdoc": {
    "kind": "dev",
    "methods": {
      "owner()": {
        "details": "Returns the address of the current owner."
      },
      "renounceOwnership()": {
        "details": "Leaves the contract without owner. It will not be possible to call `onlyOwner` functions anymore. Can only be called by the current owner. NOTE: Renouncing ownership will leave the contract without an owner, thereby removing any functionality that is only available to the owner."
      },
      "transferOwnership(address)": {
        "details": "Transfers ownership of the contract to a new account (`newOwner`). Can only be called by the current owner."
      }
    },
    "version": 1
  },
  "userdoc": {
    "kind": "user",
    "methods": {
      "getReserved(address)": {
        "notice": "---------- public getting ---------- *"
      }
    },
    "version": 1
  },
  "storageLayout": {
    "storage": [
      {
        "astId": 218,
        "contract": "contracts/DAOFactory.sol:DAOFactory",
        "label": "_initialized",
        "offset": 0,
        "slot": "0",
        "type": "t_uint8"
      },
      {
        "astId": 221,
        "contract": "contracts/DAOFactory.sol:DAOFactory",
        "label": "_initializing",
        "offset": 1,
        "slot": "0",
        "type": "t_bool"
      },
      {
        "astId": 1100,
        "contract": "contracts/DAOFactory.sol:DAOFactory",
        "label": "__gap",
        "offset": 0,
        "slot": "1",
        "type": "t_array(t_uint256)50_storage"
      },
      {
        "astId": 10,
        "contract": "contracts/DAOFactory.sol:DAOFactory",
        "label": "_owner",
        "offset": 0,
        "slot": "51",
        "type": "t_address"
      },
      {
        "astId": 130,
        "contract": "contracts/DAOFactory.sol:DAOFactory",
        "label": "__gap",
        "offset": 0,
        "slot": "52",
        "type": "t_array(t_uint256)49_storage"
      },
      {
        "astId": 5861,
        "contract": "contracts/DAOFactory.sol:DAOFactory",
        "label": "proxyAdminAddress",
        "offset": 0,
        "slot": "101",
        "type": "t_address"
      },
      {
        "astId": 5863,
        "contract": "contracts/DAOFactory.sol:DAOFactory",
        "label": "daoImpl",
        "offset": 0,
        "slot": "102",
        "type": "t_address"
      },
      {
        "astId": 5867,
        "contract": "contracts/DAOFactory.sol:DAOFactory",
        "label": "handles",
        "offset": 0,
        "slot": "103",
        "type": "t_mapping(t_string_memory_ptr,t_bool)"
      },
      {
        "astId": 5871,
        "contract": "contracts/DAOFactory.sol:DAOFactory",
        "label": "_signers",
        "offset": 0,
        "slot": "104",
        "type": "t_mapping(t_address,t_bool)"
      },
      {
        "astId": 5875,
        "contract": "contracts/DAOFactory.sol:DAOFactory",
        "label": "_daoAddresses",
        "offset": 0,
        "slot": "105",
        "type": "t_mapping(t_address,t_bool)"
      },
      {
        "astId": 5879,
        "contract": "contracts/DAOFactory.sol:DAOFactory",
        "label": "nonces",
        "offset": 0,
        "slot": "106",
        "type": "t_mapping(t_address,t_uint256)"
      },
      {
        "astId": 5881,
        "contract": "contracts/DAOFactory.sol:DAOFactory",
        "label": "tokenImpl",
        "offset": 0,
        "slot": "107",
        "type": "t_address"
      },
      {
        "astId": 5885,
        "contract": "contracts/DAOFactory.sol:DAOFactory",
        "label": "logoURLs",
        "offset": 0,
        "slot": "108",
        "type": "t_mapping(t_address,t_string_storage)"
      },
      {
        "astId": 5891,
        "contract": "contracts/DAOFactory.sol:DAOFactory",
        "label": "reserves",
        "offset": 0,
        "slot": "109",
        "type": "t_mapping(t_address,t_array(t_struct(Reserve)7328_storage)dyn_storage)"
      },
      {
        "astId": 5896,
        "contract": "contracts/DAOFactory.sol:DAOFactory",
        "label": "tokensByAccount",
        "offset": 0,
        "slot": "110",
        "type": "t_mapping(t_address,t_array(t_address)dyn_storage)"
      }
    ],
    "types": {
      "t_address": {
        "encoding": "inplace",
        "label": "address",
        "numberOfBytes": "20"
      },
      "t_array(t_address)dyn_storage": {
        "base": "t_address",
        "encoding": "dynamic_array",
        "label": "address[]",
        "numberOfBytes": "32"
      },
      "t_array(t_struct(Reserve)7328_storage)dyn_storage": {
        "base": "t_struct(Reserve)7328_storage",
        "encoding": "dynamic_array",
        "label": "struct IDAOFactory.Reserve[]",
        "numberOfBytes": "32"
      },
      "t_array(t_uint256)49_storage": {
        "base": "t_uint256",
        "encoding": "inplace",
        "label": "uint256[49]",
        "numberOfBytes": "1568"
      },
      "t_array(t_uint256)50_storage": {
        "base": "t_uint256",
        "encoding": "inplace",
        "label": "uint256[50]",
        "numberOfBytes": "1600"
      },
      "t_bool": {
        "encoding": "inplace",
        "label": "bool",
        "numberOfBytes": "1"
      },
      "t_mapping(t_address,t_array(t_address)dyn_storage)": {
        "encoding": "mapping",
        "key": "t_address",
        "label": "mapping(address => address[])",
        "numberOfBytes": "32",
        "value": "t_array(t_address)dyn_storage"
      },
      "t_mapping(t_address,t_array(t_struct(Reserve)7328_storage)dyn_storage)": {
        "encoding": "mapping",
        "key": "t_address",
        "label": "mapping(address => struct IDAOFactory.Reserve[])",
        "numberOfBytes": "32",
        "value": "t_array(t_struct(Reserve)7328_storage)dyn_storage"
      },
      "t_mapping(t_address,t_bool)": {
        "encoding": "mapping",
        "key": "t_address",
        "label": "mapping(address => bool)",
        "numberOfBytes": "32",
        "value": "t_bool"
      },
      "t_mapping(t_address,t_string_storage)": {
        "encoding": "mapping",
        "key": "t_address",
        "label": "mapping(address => string)",
        "numberOfBytes": "32",
        "value": "t_string_storage"
      },
      "t_mapping(t_address,t_uint256)": {
        "encoding": "mapping",
        "key": "t_address",
        "label": "mapping(address => uint256)",
        "numberOfBytes": "32",
        "value": "t_uint256"
      },
      "t_mapping(t_string_memory_ptr,t_bool)": {
        "encoding": "mapping",
        "key": "t_string_memory_ptr",
        "label": "mapping(string => bool)",
        "numberOfBytes": "32",
        "value": "t_bool"
      },
      "t_string_memory_ptr": {
        "encoding": "bytes",
        "label": "string",
        "numberOfBytes": "32"
      },
      "t_string_storage": {
        "encoding": "bytes",
        "label": "string",
        "numberOfBytes": "32"
      },
      "t_struct(Reserve)7328_storage": {
        "encoding": "inplace",
        "label": "struct IDAOFactory.Reserve",
        "members": [
          {
            "astId": 7323,
            "contract": "contracts/DAOFactory.sol:DAOFactory",
            "label": "token",
            "offset": 0,
            "slot": "0",
            "type": "t_address"
          },
          {
            "astId": 7325,
            "contract": "contracts/DAOFactory.sol:DAOFactory",
            "label": "amount",
            "offset": 0,
            "slot": "1",
            "type": "t_uint256"
          },
          {
            "astId": 7327,
            "contract": "contracts/DAOFactory.sol:DAOFactory",
            "label": "lockDate",
            "offset": 0,
            "slot": "2",
            "type": "t_uint256"
          }
        ],
        "numberOfBytes": "96"
      },
      "t_uint256": {
        "encoding": "inplace",
        "label": "uint256",
        "numberOfBytes": "32"
      },
      "t_uint8": {
        "encoding": "inplace",
        "label": "uint8",
        "numberOfBytes": "1"
      }
    }
  }
}